S01100007273323332746573742E73726563D7
S113000012C024C023C022C021C020C01FC01EC0F3
S11300101DC01CC01BC01AC019C018C017C016C010
S113002015C014C013C011241FBECFE5D4E0DEBF39
S1130030CDBF10E0A0E6B0E0ECE6F1E002C0059030
S11300400D92A436B107D9F76AD08EC0D9CF89E111
S113005089B910BC539A549A80B5866880BD8BB117
S11300608BB908955D9BFECF8CB908955F9BFECF3D
S11300708CB108958CE287BB81E58DB908958FB961
S1130080779BFECF08950F931F93CF93DF93EC01DB
S11300908C010C5F1F4FEADF8993C017D107D9F792
S11300A0DF91CF911F910F910895CF93DF9300D0EB
S11300B000D0CDB7DEB719821A821B821C82CE0112
S11300C00196E1DF8981CEDF8A81CCDF8B81CADFB3
S11300D08C81C8DF8C8190E0A0E0B0E0BA2FA92F1A
S11300E0982F88272B81822BBA2FA92F982F882706
S11300F02A81822BBA2FA92F982F88272981822B16
S11301008093600090936100A0936200B0936300B9
S11301100F900F900F900F90DF91CF910895AADF69
S113012096DFA4DF8B32E9F7C0DF80916000909105
S11301306100A0916200B0916300823D9240A649A3
S1130140B94411F481E39BDF8091600090916100D8
S1130150A0916200B09163008D32924BA149B10528
S10F016001F780E38CDFDDCFF894FFCFC3
S107016C1700000074
S9030000FC
